{
  "_format": "hh-sol-artifact-1",
  "contractName": "theatre",
  "sourceName": "contracts/theatre.sol",
  "abi": [
    {
      "inputs": [],
      "stateMutability": "nonpayable",
      "type": "constructor"
    },
    {
      "inputs": [
        {
          "internalType": "address",
          "name": "spender",
          "type": "address"
        },
        {
          "internalType": "uint256",
          "name": "allowance",
          "type": "uint256"
        },
        {
          "internalType": "uint256",
          "name": "needed",
          "type": "uint256"
        }
      ],
      "name": "ERC20InsufficientAllowance",
      "type": "error"
    },
    {
      "inputs": [
        {
          "internalType": "address",
          "name": "sender",
          "type": "address"
        },
        {
          "internalType": "uint256",
          "name": "balance",
          "type": "uint256"
        },
        {
          "internalType": "uint256",
          "name": "needed",
          "type": "uint256"
        }
      ],
      "name": "ERC20InsufficientBalance",
      "type": "error"
    },
    {
      "inputs": [
        {
          "internalType": "address",
          "name": "approver",
          "type": "address"
        }
      ],
      "name": "ERC20InvalidApprover",
      "type": "error"
    },
    {
      "inputs": [
        {
          "internalType": "address",
          "name": "receiver",
          "type": "address"
        }
      ],
      "name": "ERC20InvalidReceiver",
      "type": "error"
    },
    {
      "inputs": [
        {
          "internalType": "address",
          "name": "sender",
          "type": "address"
        }
      ],
      "name": "ERC20InvalidSender",
      "type": "error"
    },
    {
      "inputs": [
        {
          "internalType": "address",
          "name": "spender",
          "type": "address"
        }
      ],
      "name": "ERC20InvalidSpender",
      "type": "error"
    },
    {
      "anonymous": false,
      "inputs": [
        {
          "indexed": true,
          "internalType": "address",
          "name": "owner",
          "type": "address"
        },
        {
          "indexed": true,
          "internalType": "address",
          "name": "spender",
          "type": "address"
        },
        {
          "indexed": false,
          "internalType": "uint256",
          "name": "value",
          "type": "uint256"
        }
      ],
      "name": "Approval",
      "type": "event"
    },
    {
      "anonymous": false,
      "inputs": [
        {
          "indexed": true,
          "internalType": "address",
          "name": "from",
          "type": "address"
        },
        {
          "indexed": true,
          "internalType": "address",
          "name": "to",
          "type": "address"
        },
        {
          "indexed": false,
          "internalType": "uint256",
          "name": "value",
          "type": "uint256"
        }
      ],
      "name": "Transfer",
      "type": "event"
    },
    {
      "inputs": [
        {
          "internalType": "string",
          "name": "_title",
          "type": "string"
        },
        {
          "internalType": "uint256",
          "name": "_price",
          "type": "uint256"
        },
        {
          "internalType": "uint256",
          "name": "_totalseats",
          "type": "uint256"
        }
      ],
      "name": "addMovie",
      "outputs": [],
      "stateMutability": "nonpayable",
      "type": "function"
    },
    {
      "inputs": [
        {
          "internalType": "address",
          "name": "owner",
          "type": "address"
        },
        {
          "internalType": "address",
          "name": "spender",
          "type": "address"
        }
      ],
      "name": "allowance",
      "outputs": [
        {
          "internalType": "uint256",
          "name": "",
          "type": "uint256"
        }
      ],
      "stateMutability": "view",
      "type": "function"
    },
    {
      "inputs": [
        {
          "internalType": "address",
          "name": "spender",
          "type": "address"
        },
        {
          "internalType": "uint256",
          "name": "value",
          "type": "uint256"
        }
      ],
      "name": "approve",
      "outputs": [
        {
          "internalType": "bool",
          "name": "",
          "type": "bool"
        }
      ],
      "stateMutability": "nonpayable",
      "type": "function"
    },
    {
      "inputs": [
        {
          "internalType": "address",
          "name": "account",
          "type": "address"
        }
      ],
      "name": "balanceOf",
      "outputs": [
        {
          "internalType": "uint256",
          "name": "",
          "type": "uint256"
        }
      ],
      "stateMutability": "view",
      "type": "function"
    },
    {
      "inputs": [
        {
          "internalType": "uint256",
          "name": "amount",
          "type": "uint256"
        }
      ],
      "name": "burnTokens",
      "outputs": [],
      "stateMutability": "nonpayable",
      "type": "function"
    },
    {
      "inputs": [
        {
          "internalType": "string",
          "name": "name",
          "type": "string"
        }
      ],
      "name": "buyTicket",
      "outputs": [],
      "stateMutability": "nonpayable",
      "type": "function"
    },
    {
      "inputs": [],
      "name": "decimals",
      "outputs": [
        {
          "internalType": "uint8",
          "name": "",
          "type": "uint8"
        }
      ],
      "stateMutability": "view",
      "type": "function"
    },
    {
      "inputs": [
        {
          "internalType": "uint256",
          "name": "movieId",
          "type": "uint256"
        }
      ],
      "name": "getTicketHolders",
      "outputs": [
        {
          "internalType": "address[]",
          "name": "",
          "type": "address[]"
        }
      ],
      "stateMutability": "view",
      "type": "function"
    },
    {
      "inputs": [
        {
          "internalType": "address",
          "name": "to",
          "type": "address"
        },
        {
          "internalType": "uint256",
          "name": "amount",
          "type": "uint256"
        }
      ],
      "name": "mintTokens",
      "outputs": [],
      "stateMutability": "nonpayable",
      "type": "function"
    },
    {
      "inputs": [],
      "name": "moviecount",
      "outputs": [
        {
          "internalType": "uint256",
          "name": "",
          "type": "uint256"
        }
      ],
      "stateMutability": "view",
      "type": "function"
    },
    {
      "inputs": [
        {
          "internalType": "uint256",
          "name": "",
          "type": "uint256"
        }
      ],
      "name": "movies",
      "outputs": [
        {
          "internalType": "string",
          "name": "title",
          "type": "string"
        },
        {
          "internalType": "uint256",
          "name": "price",
          "type": "uint256"
        },
        {
          "internalType": "uint256",
          "name": "totalseats",
          "type": "uint256"
        },
        {
          "internalType": "uint256",
          "name": "availableseats",
          "type": "uint256"
        }
      ],
      "stateMutability": "view",
      "type": "function"
    },
    {
      "inputs": [],
      "name": "name",
      "outputs": [
        {
          "internalType": "string",
          "name": "",
          "type": "string"
        }
      ],
      "stateMutability": "view",
      "type": "function"
    },
    {
      "inputs": [],
      "name": "owner",
      "outputs": [
        {
          "internalType": "address",
          "name": "",
          "type": "address"
        }
      ],
      "stateMutability": "view",
      "type": "function"
    },
    {
      "inputs": [],
      "name": "symbol",
      "outputs": [
        {
          "internalType": "string",
          "name": "",
          "type": "string"
        }
      ],
      "stateMutability": "view",
      "type": "function"
    },
    {
      "inputs": [],
      "name": "totalSupply",
      "outputs": [
        {
          "internalType": "uint256",
          "name": "",
          "type": "uint256"
        }
      ],
      "stateMutability": "view",
      "type": "function"
    },
    {
      "inputs": [
        {
          "internalType": "address",
          "name": "to",
          "type": "address"
        },
        {
          "internalType": "uint256",
          "name": "value",
          "type": "uint256"
        }
      ],
      "name": "transfer",
      "outputs": [
        {
          "internalType": "bool",
          "name": "",
          "type": "bool"
        }
      ],
      "stateMutability": "nonpayable",
      "type": "function"
    },
    {
      "inputs": [
        {
          "internalType": "address",
          "name": "from",
          "type": "address"
        },
        {
          "internalType": "address",
          "name": "to",
          "type": "address"
        },
        {
          "internalType": "uint256",
          "name": "value",
          "type": "uint256"
        }
      ],
      "name": "transferFrom",
      "outputs": [
        {
          "internalType": "bool",
          "name": "",
          "type": "bool"
        }
      ],
      "stateMutability": "nonpayable",
      "type": "function"
    }
  ],
  "bytecode": "0x608060405260006006553480156200001657600080fd5b506040518060400160405280600981526020017f4d6f636b546f6b656e00000000000000000000000000000000000000000000008152506040518060400160405280600381526020017f4d544b0000000000000000000000000000000000000000000000000000000000815250816003908162000094919062000665565b508060049081620000a6919062000665565b50505033600560006101000a81548173ffffffffffffffffffffffffffffffffffffffff021916908373ffffffffffffffffffffffffffffffffffffffff16021790555062000128600560009054906101000a900473ffffffffffffffffffffffffffffffffffffffff1669d3c21bcecceda10000006200012e60201b60201c565b62000883565b600073ffffffffffffffffffffffffffffffffffffffff168273ffffffffffffffffffffffffffffffffffffffff1603620001a35760006040517fec442f050000000000000000000000000000000000000000000000000000000081526004016200019a919062000791565b60405180910390fd5b620001b760008383620001bb60201b60201c565b5050565b600073ffffffffffffffffffffffffffffffffffffffff168373ffffffffffffffffffffffffffffffffffffffff160362000211578060026000828254620002049190620007dd565b92505081905550620002e7565b60008060008573ffffffffffffffffffffffffffffffffffffffff1673ffffffffffffffffffffffffffffffffffffffff16815260200190815260200160002054905081811015620002a0578381836040517fe450d38c000000000000000000000000000000000000000000000000000000008152600401620002979392919062000829565b60405180910390fd5b8181036000808673ffffffffffffffffffffffffffffffffffffffff1673ffffffffffffffffffffffffffffffffffffffff16815260200190815260200160002081905550505b600073ffffffffffffffffffffffffffffffffffffffff168273ffffffffffffffffffffffffffffffffffffffff16036200033257806002600082825403925050819055506200037f565b806000808473ffffffffffffffffffffffffffffffffffffffff1673ffffffffffffffffffffffffffffffffffffffff168152602001908152602001600020600082825401925050819055505b8173ffffffffffffffffffffffffffffffffffffffff168373ffffffffffffffffffffffffffffffffffffffff167fddf252ad1be2c89b69c2b068fc378daa952ba7f163c4a11628f55a4df523b3ef83604051620003de919062000866565b60405180910390a3505050565b600081519050919050565b7f4e487b7100000000000000000000000000000000000000000000000000000000600052604160045260246000fd5b7f4e487b7100000000000000000000000000000000000000000000000000000000600052602260045260246000fd5b600060028204905060018216806200046d57607f821691505b60208210810362000483576200048262000425565b5b50919050565b60008190508160005260206000209050919050565b60006020601f8301049050919050565b600082821b905092915050565b600060088302620004ed7fffffffffffffffffffffffffffffffffffffffffffffffffffffffffffffffff82620004ae565b620004f98683620004ae565b95508019841693508086168417925050509392505050565b6000819050919050565b6000819050919050565b600062000546620005406200053a8462000511565b6200051b565b62000511565b9050919050565b6000819050919050565b620005628362000525565b6200057a62000571826200054d565b848454620004bb565b825550505050565b600090565b6200059162000582565b6200059e81848462000557565b505050565b5b81811015620005c657620005ba60008262000587565b600181019050620005a4565b5050565b601f8211156200061557620005df8162000489565b620005ea846200049e565b81016020851015620005fa578190505b6200061262000609856200049e565b830182620005a3565b50505b505050565b600082821c905092915050565b60006200063a600019846008026200061a565b1980831691505092915050565b600062000655838362000627565b9150826002028217905092915050565b6200067082620003eb565b67ffffffffffffffff8111156200068c576200068b620003f6565b5b62000698825462000454565b620006a5828285620005ca565b600060209050601f831160018114620006dd5760008415620006c8578287015190505b620006d4858262000647565b86555062000744565b601f198416620006ed8662000489565b60005b828110156200071757848901518255600182019150602085019450602081019050620006f0565b8683101562000737578489015162000733601f89168262000627565b8355505b6001600288020188555050505b505050505050565b600073ffffffffffffffffffffffffffffffffffffffff82169050919050565b600062000779826200074c565b9050919050565b6200078b816200076c565b82525050565b6000602082019050620007a8600083018462000780565b92915050565b7f4e487b7100000000000000000000000000000000000000000000000000000000600052601160045260246000fd5b6000620007ea8262000511565b9150620007f78362000511565b9250828201905080821115620008125762000811620007ae565b5b92915050565b620008238162000511565b82525050565b600060608201905062000840600083018662000780565b6200084f602083018562000818565b6200085e604083018462000818565b949350505050565b60006020820190506200087d600083018462000818565b92915050565b6122ae80620008936000396000f3fe608060405234801561001057600080fd5b506004361061010a5760003560e01c80636d1b229d116100a2578063a9059cbb11610071578063a9059cbb146102d0578063b643066114610300578063dd62ed3e1461031e578063f0dda65c1461034e578063fa30b2511461036a5761010a565b80636d1b229d1461024857806370a08231146102645780638da5cb5b1461029457806395d89b41146102b25761010a565b80632080c3dc116100de5780632080c3dc146101ab57806323b872dd146101c7578063313ce567146101f7578063404ebf6c146102155761010a565b80622a5cc91461010f57806306fdde031461013f578063095ea7b31461015d57806318160ddd1461018d575b600080fd5b61012960048036038101906101249190611471565b610386565b604051610136919061158e565b60405180910390f35b61014761046e565b6040516101549190611640565b60405180910390f35b6101776004803603810190610172919061168e565b610500565b60405161018491906116e9565b60405180910390f35b610195610523565b6040516101a29190611713565b60405180910390f35b6101c560048036038101906101c09190611863565b61052d565b005b6101e160048036038101906101dc91906118d2565b61073e565b6040516101ee91906116e9565b60405180910390f35b6101ff61076d565b60405161020c9190611941565b60405180910390f35b61022f600480360381019061022a9190611471565b610776565b60405161023f949392919061195c565b60405180910390f35b610262600480360381019061025d9190611471565b61082e565b005b61027e600480360381019061027991906119a8565b61083b565b60405161028b9190611713565b60405180910390f35b61029c610883565b6040516102a991906119e4565b60405180910390f35b6102ba6108a9565b6040516102c79190611640565b60405180910390f35b6102ea60048036038101906102e5919061168e565b61093b565b6040516102f791906116e9565b60405180910390f35b61030861095e565b6040516103159190611713565b60405180910390f35b610338600480360381019061033391906119ff565b610964565b6040516103459190611713565b60405180910390f35b6103686004803603810190610363919061168e565b6109eb565b005b610384600480360381019061037f9190611a3f565b610a89565b005b606060065482106103cc576040517f08c379a00000000000000000000000000000000000000000000000000000000081526004016103c390611ad4565b60405180910390fd5b6007600083815260200190815260200160002060040180548060200260200160405190810160405280929190818152602001828054801561046257602002820191906000526020600020905b8160009054906101000a900473ffffffffffffffffffffffffffffffffffffffff1673ffffffffffffffffffffffffffffffffffffffff1681526020019060010190808311610418575b50505050509050919050565b60606003805461047d90611b23565b80601f01602080910402602001604051908101604052809291908181526020018280546104a990611b23565b80156104f65780601f106104cb576101008083540402835291602001916104f6565b820191906000526020600020905b8154815290600101906020018083116104d957829003601f168201915b5050505050905090565b60008061050b610cdd565b9050610518818585610ce5565b600191505092915050565b6000600254905090565b600560009054906101000a900473ffffffffffffffffffffffffffffffffffffffff1673ffffffffffffffffffffffffffffffffffffffff163373ffffffffffffffffffffffffffffffffffffffff16146105bd576040517f08c379a00000000000000000000000000000000000000000000000000000000081526004016105b490611bc6565b60405180910390fd5b60008211610600576040517f08c379a00000000000000000000000000000000000000000000000000000000081526004016105f790611c32565b60405180910390fd5b60008111610643576040517f08c379a000000000000000000000000000000000000000000000000000000000815260040161063a90611c9e565b60405180910390fd5b60008067ffffffffffffffff81111561065f5761065e611738565b5b60405190808252806020026020018201604052801561068d5781602001602082028036833780820191505090505b5090506040518060a001604052808581526020018481526020018381526020018381526020018281525060076000600654815260200190815260200160002060008201518160000190816106e19190611e6a565b50602082015181600101556040820151816002015560608201518160030155608082015181600401908051906020019061071c929190611380565b509050506006600081548092919061073390611f6b565b919050555050505050565b600080610749610cdd565b9050610756858285610cf7565b610761858585610d8c565b60019150509392505050565b60006012905090565b600760205280600052604060002060009150905080600001805461079990611b23565b80601f01602080910402602001604051908101604052809291908181526020018280546107c590611b23565b80156108125780601f106107e757610100808354040283529160200191610812565b820191906000526020600020905b8154815290600101906020018083116107f557829003601f168201915b5050505050908060010154908060020154908060030154905084565b6108383382610e80565b50565b60008060008373ffffffffffffffffffffffffffffffffffffffff1673ffffffffffffffffffffffffffffffffffffffff168152602001908152602001600020549050919050565b600560009054906101000a900473ffffffffffffffffffffffffffffffffffffffff1681565b6060600480546108b890611b23565b80601f01602080910402602001604051908101604052809291908181526020018280546108e490611b23565b80156109315780601f1061090657610100808354040283529160200191610931565b820191906000526020600020905b81548152906001019060200180831161091457829003601f168201915b5050505050905090565b600080610946610cdd565b9050610953818585610d8c565b600191505092915050565b60065481565b6000600160008473ffffffffffffffffffffffffffffffffffffffff1673ffffffffffffffffffffffffffffffffffffffff16815260200190815260200160002060008373ffffffffffffffffffffffffffffffffffffffff1673ffffffffffffffffffffffffffffffffffffffff16815260200190815260200160002054905092915050565b600560009054906101000a900473ffffffffffffffffffffffffffffffffffffffff1673ffffffffffffffffffffffffffffffffffffffff163373ffffffffffffffffffffffffffffffffffffffff1614610a7b576040517f08c379a0000000000000000000000000000000000000000000000000000000008152600401610a7290611bc6565b60405180910390fd5b610a858282610f02565b5050565b6000610a943361083b565b90506000600654905060005b600654811015610b2d5783604051602001610abb9190611fef565b6040516020818303038152906040528051906020012060076000838152602001908152602001600020600001604051602001610af79190612089565b6040516020818303038152906040528051906020012003610b1a57809150610b2d565b8080610b2590611f6b565b915050610aa0565b506006548110610b72576040517f08c379a0000000000000000000000000000000000000000000000000000000008152600401610b69906120ec565b60405180910390fd5b6000600760008381526020019081526020016000206003015403610bcb576040517f08c379a0000000000000000000000000000000000000000000000000000000008152600401610bc290612158565b60405180910390fd5b60006007600083815260200190815260200160002060010154905080831015610c29576040517f08c379a0000000000000000000000000000000000000000000000000000000008152600401610c20906121c4565b60405180910390fd5b610c34333083610d8c565b600760008381526020019081526020016000206003016000815480929190610c5b906121e4565b919050555060076000838152602001908152602001600020600401339080600181540180825580915050600190039060005260206000200160009091909190916101000a81548173ffffffffffffffffffffffffffffffffffffffff021916908373ffffffffffffffffffffffffffffffffffffffff16021790555050505050565b600033905090565b610cf28383836001610f84565b505050565b6000610d038484610964565b90507fffffffffffffffffffffffffffffffffffffffffffffffffffffffffffffffff811015610d865781811015610d76578281836040517ffb8f41b2000000000000000000000000000000000000000000000000000000008152600401610d6d9392919061220d565b60405180910390fd5b610d8584848484036000610f84565b5b50505050565b600073ffffffffffffffffffffffffffffffffffffffff168373ffffffffffffffffffffffffffffffffffffffff1603610dfe5760006040517f96c6fd1e000000000000000000000000000000000000000000000000000000008152600401610df591906119e4565b60405180910390fd5b600073ffffffffffffffffffffffffffffffffffffffff168273ffffffffffffffffffffffffffffffffffffffff1603610e705760006040517fec442f05000000000000000000000000000000000000000000000000000000008152600401610e6791906119e4565b60405180910390fd5b610e7b83838361115b565b505050565b600073ffffffffffffffffffffffffffffffffffffffff168273ffffffffffffffffffffffffffffffffffffffff1603610ef25760006040517f96c6fd1e000000000000000000000000000000000000000000000000000000008152600401610ee991906119e4565b60405180910390fd5b610efe8260008361115b565b5050565b600073ffffffffffffffffffffffffffffffffffffffff168273ffffffffffffffffffffffffffffffffffffffff1603610f745760006040517fec442f05000000000000000000000000000000000000000000000000000000008152600401610f6b91906119e4565b60405180910390fd5b610f806000838361115b565b5050565b600073ffffffffffffffffffffffffffffffffffffffff168473ffffffffffffffffffffffffffffffffffffffff1603610ff65760006040517fe602df05000000000000000000000000000000000000000000000000000000008152600401610fed91906119e4565b60405180910390fd5b600073ffffffffffffffffffffffffffffffffffffffff168373ffffffffffffffffffffffffffffffffffffffff16036110685760006040517f94280d6200000000000000000000000000000000000000000000000000000000815260040161105f91906119e4565b60405180910390fd5b81600160008673ffffffffffffffffffffffffffffffffffffffff1673ffffffffffffffffffffffffffffffffffffffff16815260200190815260200160002060008573ffffffffffffffffffffffffffffffffffffffff1673ffffffffffffffffffffffffffffffffffffffff168152602001908152602001600020819055508015611155578273ffffffffffffffffffffffffffffffffffffffff168473ffffffffffffffffffffffffffffffffffffffff167f8c5be1e5ebec7d5bd14f71427d1e84f3dd0314c0f7b2291e5b200ac8c7c3b9258460405161114c9190611713565b60405180910390a35b50505050565b600073ffffffffffffffffffffffffffffffffffffffff168373ffffffffffffffffffffffffffffffffffffffff16036111ad5780600260008282546111a19190612244565b92505081905550611280565b60008060008573ffffffffffffffffffffffffffffffffffffffff1673ffffffffffffffffffffffffffffffffffffffff16815260200190815260200160002054905081811015611239578381836040517fe450d38c0000000000000000000000000000000000000000000000000000000081526004016112309392919061220d565b60405180910390fd5b8181036000808673ffffffffffffffffffffffffffffffffffffffff1673ffffffffffffffffffffffffffffffffffffffff16815260200190815260200160002081905550505b600073ffffffffffffffffffffffffffffffffffffffff168273ffffffffffffffffffffffffffffffffffffffff16036112c95780600260008282540392505081905550611316565b806000808473ffffffffffffffffffffffffffffffffffffffff1673ffffffffffffffffffffffffffffffffffffffff168152602001908152602001600020600082825401925050819055505b8173ffffffffffffffffffffffffffffffffffffffff168373ffffffffffffffffffffffffffffffffffffffff167fddf252ad1be2c89b69c2b068fc378daa952ba7f163c4a11628f55a4df523b3ef836040516113739190611713565b60405180910390a3505050565b8280548282559060005260206000209081019282156113f9579160200282015b828111156113f85782518260006101000a81548173ffffffffffffffffffffffffffffffffffffffff021916908373ffffffffffffffffffffffffffffffffffffffff160217905550916020019190600101906113a0565b5b509050611406919061140a565b5090565b5b8082111561142357600081600090555060010161140b565b5090565b6000604051905090565b600080fd5b600080fd5b6000819050919050565b61144e8161143b565b811461145957600080fd5b50565b60008135905061146b81611445565b92915050565b60006020828403121561148757611486611431565b5b60006114958482850161145c565b91505092915050565b600081519050919050565b600082825260208201905092915050565b6000819050602082019050919050565b600073ffffffffffffffffffffffffffffffffffffffff82169050919050565b60006114f5826114ca565b9050919050565b611505816114ea565b82525050565b600061151783836114fc565b60208301905092915050565b6000602082019050919050565b600061153b8261149e565b61154581856114a9565b9350611550836114ba565b8060005b83811015611581578151611568888261150b565b975061157383611523565b925050600181019050611554565b5085935050505092915050565b600060208201905081810360008301526115a88184611530565b905092915050565b600081519050919050565b600082825260208201905092915050565b60005b838110156115ea5780820151818401526020810190506115cf565b60008484015250505050565b6000601f19601f8301169050919050565b6000611612826115b0565b61161c81856115bb565b935061162c8185602086016115cc565b611635816115f6565b840191505092915050565b6000602082019050818103600083015261165a8184611607565b905092915050565b61166b816114ea565b811461167657600080fd5b50565b60008135905061168881611662565b92915050565b600080604083850312156116a5576116a4611431565b5b60006116b385828601611679565b92505060206116c48582860161145c565b9150509250929050565b60008115159050919050565b6116e3816116ce565b82525050565b60006020820190506116fe60008301846116da565b92915050565b61170d8161143b565b82525050565b60006020820190506117286000830184611704565b92915050565b600080fd5b600080fd5b7f4e487b7100000000000000000000000000000000000000000000000000000000600052604160045260246000fd5b611770826115f6565b810181811067ffffffffffffffff8211171561178f5761178e611738565b5b80604052505050565b60006117a2611427565b90506117ae8282611767565b919050565b600067ffffffffffffffff8211156117ce576117cd611738565b5b6117d7826115f6565b9050602081019050919050565b82818337600083830152505050565b6000611806611801846117b3565b611798565b90508281526020810184848401111561182257611821611733565b5b61182d8482856117e4565b509392505050565b600082601f83011261184a5761184961172e565b5b813561185a8482602086016117f3565b91505092915050565b60008060006060848603121561187c5761187b611431565b5b600084013567ffffffffffffffff81111561189a57611899611436565b5b6118a686828701611835565b93505060206118b78682870161145c565b92505060406118c88682870161145c565b9150509250925092565b6000806000606084860312156118eb576118ea611431565b5b60006118f986828701611679565b935050602061190a86828701611679565b925050604061191b8682870161145c565b9150509250925092565b600060ff82169050919050565b61193b81611925565b82525050565b60006020820190506119566000830184611932565b92915050565b600060808201905081810360008301526119768187611607565b90506119856020830186611704565b6119926040830185611704565b61199f6060830184611704565b95945050505050565b6000602082840312156119be576119bd611431565b5b60006119cc84828501611679565b91505092915050565b6119de816114ea565b82525050565b60006020820190506119f960008301846119d5565b92915050565b60008060408385031215611a1657611a15611431565b5b6000611a2485828601611679565b9250506020611a3585828601611679565b9150509250929050565b600060208284031215611a5557611a54611431565b5b600082013567ffffffffffffffff811115611a7357611a72611436565b5b611a7f84828501611835565b91505092915050565b7f496e76616c6964206d6f76696520494400000000000000000000000000000000600082015250565b6000611abe6010836115bb565b9150611ac982611a88565b602082019050919050565b60006020820190508181036000830152611aed81611ab1565b9050919050565b7f4e487b7100000000000000000000000000000000000000000000000000000000600052602260045260246000fd5b60006002820490506001821680611b3b57607f821691505b602082108103611b4e57611b4d611af4565b5b50919050565b7f4f6e6c792061646d696e2063616e20706572666f726d2074686973206163746960008201527f6f6e000000000000000000000000000000000000000000000000000000000000602082015250565b6000611bb06022836115bb565b9150611bbb82611b54565b604082019050919050565b60006020820190508181036000830152611bdf81611ba3565b9050919050565b7f5072696365206d757374206265206d6f7265207468616e203000000000000000600082015250565b6000611c1c6019836115bb565b9150611c2782611be6565b602082019050919050565b60006020820190508181036000830152611c4b81611c0f565b9050919050565b7f546f74616c207365617473206d757374206265206d6f7265207468616e203000600082015250565b6000611c88601f836115bb565b9150611c9382611c52565b602082019050919050565b60006020820190508181036000830152611cb781611c7b565b9050919050565b60008190508160005260206000209050919050565b60006020601f8301049050919050565b600082821b905092915050565b600060088302611d207fffffffffffffffffffffffffffffffffffffffffffffffffffffffffffffffff82611ce3565b611d2a8683611ce3565b95508019841693508086168417925050509392505050565b6000819050919050565b6000611d67611d62611d5d8461143b565b611d42565b61143b565b9050919050565b6000819050919050565b611d8183611d4c565b611d95611d8d82611d6e565b848454611cf0565b825550505050565b600090565b611daa611d9d565b611db5818484611d78565b505050565b5b81811015611dd957611dce600082611da2565b600181019050611dbb565b5050565b601f821115611e1e57611def81611cbe565b611df884611cd3565b81016020851015611e07578190505b611e1b611e1385611cd3565b830182611dba565b50505b505050565b600082821c905092915050565b6000611e4160001984600802611e23565b1980831691505092915050565b6000611e5a8383611e30565b9150826002028217905092915050565b611e73826115b0565b67ffffffffffffffff811115611e8c57611e8b611738565b5b611e968254611b23565b611ea1828285611ddd565b600060209050601f831160018114611ed45760008415611ec2578287015190505b611ecc8582611e4e565b865550611f34565b601f198416611ee286611cbe565b60005b82811015611f0a57848901518255600182019150602085019450602081019050611ee5565b86831015611f275784890151611f23601f891682611e30565b8355505b6001600288020188555050505b505050505050565b7f4e487b7100000000000000000000000000000000000000000000000000000000600052601160045260246000fd5b6000611f768261143b565b91507fffffffffffffffffffffffffffffffffffffffffffffffffffffffffffffffff8203611fa857611fa7611f3c565b5b600182019050919050565b600081905092915050565b6000611fc9826115b0565b611fd38185611fb3565b9350611fe38185602086016115cc565b80840191505092915050565b6000611ffb8284611fbe565b915081905092915050565b6000815461201381611b23565b61201d8186611fb3565b94506001821660008114612038576001811461204d57612080565b60ff1983168652811515820286019350612080565b61205685611cbe565b60005b8381101561207857815481890152600182019150602081019050612059565b838801955050505b50505092915050565b60006120958284612006565b915081905092915050565b7f6d6f76696520646f6573206e6f74206578697374000000000000000000000000600082015250565b60006120d66014836115bb565b91506120e1826120a0565b602082019050919050565b60006020820190508181036000830152612105816120c9565b9050919050565b7f6d6f7669652069732066756c6c00000000000000000000000000000000000000600082015250565b6000612142600d836115bb565b915061214d8261210c565b602082019050919050565b6000602082019050818103600083015261217181612135565b9050919050565b7f496e73756666696369656e742066756e64730000000000000000000000000000600082015250565b60006121ae6012836115bb565b91506121b982612178565b602082019050919050565b600060208201905081810360008301526121dd816121a1565b9050919050565b60006121ef8261143b565b91506000820361220257612201611f3c565b5b600182039050919050565b600060608201905061222260008301866119d5565b61222f6020830185611704565b61223c6040830184611704565b949350505050565b600061224f8261143b565b915061225a8361143b565b925082820190508082111561227257612271611f3c565b5b9291505056fea26469706673582212200fc43b6056508e54614b6a9c4136162a62075dff2aa6073d15e9ccad6409652d64736f6c63430008140033",
  "linkReferences": {},
  "deployedLinkReferences": {}
}